:020000020000FC
:020000006BC0D3
:02004800A7C04F
:02004C00ABC047
:0200040044C0F6
:020008002FC007
:100068000F930FB70F9300910401039500930401B8
:10007800003029F4009105010395009305010F91C3
:100088000FBF0F911895BCD04A99189526B12370C7
:10009800213031F0223051F0233071F0203091F0CE
:1000A800E6E2F2E050D04098419A1895E6E3F2E093
:1000B8004AD0409A419A1895E8E4F2E044D0409832
:1000C80041981895E8E5F2E03ED0409A4198189595
:1000D8000FEF0DBF08E00EBF539852985A9A5B9ADB
:1000E800009169000061009369000DB303600DBBC6
:1000F800389A399A409A419819D0789400270093F1
:1001080004010093050172D020910401309105018A
:1001180031D0E2E2F2E017D0F1CF5F9A67D05F9872
:1001280065D028D0E2E2F2E00ED0F7CF00E00093ED
:10013800C50007E60093C40008E90093C1000EE07B
:100148000093C20008950F930591003011F003D079
:10015800FBCF0F91089503D00093C60008950F9325
:100168000091C00005FFFCCF0F91089500E3020F36
:10017800F2DF089529D020910001F8DF20910101D4
:10018800F5DF20910201F2DF20910301EFDF0895EE
:100198000F930091C600DFDF0F91189518950F9304
:1001A8001F9300271127351750F011F4241738F042
:1001B800241B350B03950030B1F71395F4CF402F6E
:1001C800512F1F910F91089548EE53E0E8DF4093B7
:1001D800000144E650E0E3DF409301014AE050E0CB
:1001E800DEDF409302012093030108951FEF2FEFF4
:1001F80032E33A95F1F72A95D9F71A95C1F7089598
:1002080032E33A95F1F72A95D9F70895467265636E
:1002180075656E6369613A2000000D0A000043614C
:100228006D62696F206120417A756C0D0A00436127
:100238006D62696F20612056657264650D0A000061
:1002480043616D62696F206120526F6A6F0D0A0009
:1002580043616D62696F206120426C616E636F0D4E
:020268000A008A
:00000001FF
