:020000020000FC
:020000006BC0D3
:02004800AEC048
:02004C00B2C040
:0200040044C0F6
:020008002FC007
:100068000F930FB70F9300910401039500930401B8
:10007800003029F4009105010395009305010F91C3
:100088000FBF0F911895C3D04A99189526B12370C0
:10009800213031F0223051F0233071F0203091F0CE
:1000A800E4E3F2E057D04098419A1895E4E4F2E08E
:1000B80051D0409A419A1895E6E5F2E04BD0409825
:1000C80041981895E6E6F2E045D0409A419818958F
:1000D8000FEF0DBF08E00EBF539852985A9A5B9ADB
:1000E800009169000A60009369000DB303600DBBBD
:1000F80010918100136010938100389A399A409AC0
:1001080041981BD0789400270093040100930501BF
:1001180009D0209104013091050133D0E0E3F2E0E9
:1001280019D0F1CFA5D008955F9A67D05F9865D0B0
:1001380028D0E0E3F2E00ED0F7CF00E00093C5004E
:1001480007E60093C40008E90093C1000EE000939D
:10015800C20008950F930591003011F003D0FBCF32
:100168000F91089503D00093C60008950F9300914E
:10017800C00005FFFCCF0F91089500E3020FF2DFE6
:10018800089529D020910001F8DF20910101F5DFC1
:1001980020910201F2DF20910301EFDF08950F9310
:1001A8000091C600DFDF0F91189518950F931F93E4
:1001B80000271127351750F011F4241738F0241BA5
:1001C800350B03950030B1F71395F4CF402F512F1D
:1001D8001F910F91089548EE53E0E8DF4093000126
:1001E80044E650E0E3DF409301014AE050E0DEDFFF
:1001F800409302012093030108951FEF2FEF32E38C
:100208003A95F1F72A95D9F71A95C1F7089532E387
:100218003A95F1F72A95D9F7089546726563756599
:100228006E6369613A2000000D0A000043616D6247
:10023800696F206120417A756C0D0A0043616D6217
:10024800696F20612056657264650D0A000043617C
:100258006D62696F206120526F6A6F0D0A004361F9
:100268006D62696F206120426C616E636F0D0A00D8
:100278000F93B09BFECFB09A0BE0009385000CED76
:08028800009384000F9108951A
:00000001FF
