:020000020000FC
:0200000033C00B
:0200040001C237
:0200080000C234
:0200400058C0A6
:020034006DC09D
:0200480085C170
:02004C008FC162
:100068000FEF0DBF08E00EBF0E94FA010E94780151
:100078000E9495000E9453000E944F0000270093A1
:1000880005010093040196D10E94AE000E9433013D
:100098000E949A00F3CF78940895F89408955E9892
:1000A8005D982B98569A559A239A09EF04BD05B581
:1000B800087F026005BD002707BD08BD00916E00DE
:1000C800016000936E0009EC0093B0000091B1004C
:1000D800087F02600093B10000270093B3000091ED
:1000E800700001600093700008950F9300913F0025
:1000F8000F9300910C0107BD00910D0108BD0F91F0
:1001080000933F000F9118950F9300913F000F93B4
:1001180000910E010093B3000F9100933F000F91DF
:100128001895389A399A40984198089508B10370FB
:10013800003031F0033031F0023031F000E005C01A
:1001480003E003C002E001C001E018B11C7F012BED
:1001580008B9089508B10370003029F0033071F030
:100168000230B9F021C0209104013091050120939B
:100178000601309307010E94D90016C0209104019E
:100188003091050120930801309309010E94F7007E
:100198000BC0209104013091050120930A0130938E
:1001A8000B010E94150100C008950091070100305D
:1001B80091F400910601053090F0033760F4055082
:1001C8001FEF019F312D202D4EE655270E94B701C4
:1001D80040930C0108950FEF00930C010895002738
:1001E80000930C01089500910901003091F40091E9
:1001F8000801043090F00F3560F404501FEF019FA0
:10020800312D202D4BE555270E94B70140930D0154
:1002180008950FEF00930D010895002700930D0135
:10022800089500910B01003091F400910A01033008
:1002380090F0093660F403501FEF019F312D202DF7
:1002480046E655270E94B70140930E0108950FEF27
:1002580000930E010895002700930E01089508B138
:100268000370013009F00895E0EDF3E00E94850184
:10027800E6EDF3E046D020910601309107010E9497
:100288009C01EAEDF3E03DD020910801309109018D
:100298000E949C01E0EEF3E034D020910A013091F5
:1002A8000B010E949C01E6EEF3E00E948501E6ED59
:1002B800F3E027D020910C0133270E949C01EAED3E
:1002C800F3E01FD020910D0133270E949C01E0EE3E
:1002D800F3E017D020910E0133270E949C01E0EF34
:1002E800F3E00E948501089500E00093C50007E649
:1002F8000093C40008E90093C1000EE00093C20017
:1003080008950F930591003011F003D0FBCF0F91A2
:10031800089503D00093C60008950F930091C0007C
:1003280005FFFCCF0F91089500E3020FF2DF089557
:100338002FD020910001F8DF20910101F5DF2091F5
:100348000201F2DF20910301EFDF08950F9300917E
:100358003F000F930091C600DCDF0F9100933F0030
:100368000F91189518950F931F930027112735178C
:1003780050F011F4241738F0241B350B0395003086
:10038800B1F71395F4CF402F512F1F910F91089576
:1003980048EE53E0E8DF4093000144E650E0E3DF35
:1003A800409301014AE050E0DEDF409302012093D0
:1003B8000301089512E02FEF32E33A95F1F72A95F9
:1003C800D9F71A95C1F70895465245512000523A77
:1003D800200020473A20000020423A200000207CDC
:1003E80020445554592000000D0A00005298539893
:1003F8005A9A5B9A0AE00093690003E00DBB0895DE
:1004080018950F930FB70F9300910401039500936C
:100418000401003019F40FEF009304010F910FBF8E
:040428000F91189583
:00000001FF
